:0200000019C025
:10000200FECFFDCFFCCFFBCFFACFF9CFF8CFF7CFA2
:10001200F6CFF5CFF4CFF3CFF2CFF1CFF0CFEFCFD2
:10002200EECFEDCFECCFEBCF000103070F1F3F7FE9
:10003200FF00F894EE27ECBBF1E0FBBFEBBFE5BF9E
:100042008DE0A2E0BB27ED938A95E9F780E092E08C
:10005200A0E6ED930197E9F7EFE5EDBFE2E0EEBF31
:10006200C0EED0E00FC01A931A2FE12FE066E7B975
:1000720083E08A95F1F7369A349BFECF349AE5B144
:1000820019910895E0E0EABBEBBBEFEFE7BBE0E0DC
:10009200E8BBE4BBEFEFE5BBE1BBE0E0E2BBE3BF03
:1000A200E2BFECBFEFBDEEBDEDBDECBDE7BDE6BD11
:1000B200EBBDEABDE9BDE8BDE2BDE5BDE4BDE3BD22
:1000C200E9BFE5BFE4BFEAB9E0E8E8B9E0E6E7B9CD
:1000D200E1E8E6B9E0E1E0BFE0E0EDB9E6BFA0E0CB
:1000E200C2DF4E2E5524A1E0BEDF6E2E7724D20150
:1000F2000CD008BAA5E0B0E039D0D30106D002BADC
:10010200A5E0B0E033D0EBCFFFCFEFE1F0E01BD0C2
:10011200E65DFF4F04900895F195E195F040089552
:100122000024112490E1AA0FBB1F001C111C0E1AFF
:100132001F0A18F40E0E1F1E01C0A1609A9599F7AE
:10014200FD01D001089504D0EBDF0EF4E5DF089540
:10015200E894F7FF02C0E0DF6894B7FF06C0B195EC
:10016200A195B04000F8039400FA0895109639F072
:10017200A8958AEF90E00197F1F71197C9F70895D2
:00000001FF
