:0C00000025C0FECFFDCFFCCFFBCFFACF18
:10000C00F9CFF8CFF7CFF6CFF5CFF4CFF3CFF2CFC0
:10001C00F1CFF0CFEFCFEECFEDCFECCFEBCF3F0664
:10002C005B4F666D7C077F6F0000010001010101D1
:10003C0001000100020034000700E000360000005F
:10004C00F894EE27ECBBF1E0FBBFEBBFE5BF8DE016
:10005C00A2E0BB27ED938A95E9F780E092E0A0E659
:10006C00ED930197E9F7EEE3F0E085919591009718
:10007C0061F0A591B59105901590BF01F001059027
:10008C000D920197E1F7FB01F0CFEFE5EDBFE2E058
:10009C00EEBFC0EED0E000C0EFE7EABBE0E0EBBBA8
:1000AC00E0EFE7BBEFE0E8BBEFE1E4BBE0E0E5BB92
:1000BC00EFE7E1BBE0E0E2BBE3BFE2BFECBFEFBDCB
:1000CC00EEBDEDBDECBDE7BDE6BDEBBDEABDE9BDEA
:1000DC00E8BDE2BDE5BDE4BDE3BDE9BFE5BFE4BFFE
:1000EC00EAB9E0E8E8B9E0E0E0BFE6B9EDB9E6BFAF
:1000FC0044245524662477248BD29AD2B1D2B3D21D
:10010C00B7D2E2E0F0E0BAD2E0E0E093F900E0939D
:10011C00FA00E0930101E0930201B5D2BAD2BFD24A
:10012C00FED0B1D2A0910301B0910401A93CE0E052
:10013C00BE0744F4A1D1D3D104D239D2A3E0B1E0AB
:10014C00B4D2F0CFC498C59AF201B5D2A4E1B8D21A
:10015C00C49AC598A4E1B4D2F301ADD2B3D2E1E014
:10016C00B3D21197D1F4B8D211F4919801C0919AED
:10017C00B7D211F4929801C0929AB6D211F4939816
:10018C0001C0939AB5D211F4949801C0949AB4D248
:10019C0011F4959801C0959AB3D2E82DE03011F482
:1001AC00909801C0909AE091EB00E03011F4969891
:1001BC0001C0969A87D2E2E087D21297D1F48CD202
:1001CC0011F4919801C0919A8BD211F4929801C0BC
:1001DC00929A8AD211F4939801C0939A89D211F40D
:1001EC00949801C0949A88D211F4959801C0959A6C
:1001FC0087D2EA2DE03011F4909801C0909AE091EA
:10020C00ED00E03011F4969801C0969A5BD2E4E0D0
:10021C005BD21397D1F460D211F4919801C0919AEA
:10022C005FD211F4929801C0929A5ED211F4939815
:10023C0001C0939A5DD211F4949801C0949A5CD247
:10024C0011F4959801C0959A5BD2EC2DE03011F425
:10025C00909801C0909AE091EF00E03011F49698DC
:10026C0001C0969A2FD2E8E02FD21497D1F434D251
:10027C0011F4919801C0919A33D211F4929801C063
:10028C00929A32D211F4939801C0939A31D211F40C
:10029C00949801C0949A30D211F4959801C0959A13
:1002AC002FD2E091E700E03011F4909801C0909AC1
:1002BC00E091F100E03011F4969801C0969A02D2C8
:1002CC00E0E102D21597D1F407D211F4919801C054
:1002DC00919A06D211F4929801C0929A05D211F417
:1002EC00939801C0939A04D211F4949801C0949AF3
:1002FC0003D211F4959801C0959A02D2E091E900CD
:10030C00E03011F4909801C0909AE091F300E03045
:10031C0011F4969801C0969AD5D102CFFFCFF2D1A5
:10032C00E093FD00F093FE00E091FB00F091FC00E7
:10033C00EED1E0910501F0910601EED1EA0FFB1F21
:10034C00F0D1E0910701F0910801F0D1EA0FFB1F09
:10035C0095D1E2D11697C9F5E9D1119731F4A09155
:10036C00EB00B091EC00109729F1E0D1129731F429
:10037C00A091ED00B091EE001097E1F0D7D113975A
:10038C0031F4A091EF00B091F000109799F0CED11C
:10039C00149731F4A091F100B091F200109751F044
:1003AC00C5D1159731F4A091F300B091F4001097DA
:1003BC0009F007C0EFEFFFEFE0930501F0930601A2
:1003CC0004C0F20131962F01B6D1B0D1159761F46A
:1003DC00E5E0F0E053D1E5E0F0E099D1EFEFFFEF8D
:1003EC00E0930701F0930801A1D1119729F438D1BA
:1003FC0045D136D18CD153D185D1309779F596D161
:10040C00119721F400240814090409F18FD11297D3
:10041C0021F400240A140B04D1F088D1139721F491
:10042C0000240C140D0499F081D1149731F4A0918F
:10043C00E700B091E800109751F078D1159731F49E
:10044C00A091E900B091EA00109709F002C021D107
:10045C0005C0F30131963F0131976DD153D1E05274
:10046C00FF4FA0E0A083E091FD00F091FE00E05270
:10047C00FF4FA1E0A0830895B19902C0E89401C098
:10048C00689421F820FE02C021FE01C01FC0A5EF18
:10049C00B0E00BD155D115971CF0E4E0F0E0E3D0BF
:1004AC004FD1119709F4B4D04BD1129711F44DD10F
:1004BC004FD146D1139719F448D159D15BD140D1C2
:1004CC00149719F442D153D162D16DD120FC02C0E2
:1004DC0021FC01C003C067D121FA20F80895B0991E
:1004EC0002C0E89401C0689425F824FE02C025FEE1
:1004FC0001C01EC0A5EFB0E058D122D1119714F461
:10050C00AFD0B1D01DD1119709F482D019D1129767
:10051C0011F41BD11DD114D1139719F416D127D175
:10052C0029D10ED1149719F410D121D130D13BD14E
:10053C0024FC02C025FC01C003C035D125FA24F8E7
:10054C000895B39902C0E89401C0689423F822FE80
:10055C0002C023FE01C022C0A7EFB0E0A6D02BD171
:10056C00159734F0E4E0F0E0E093F700F093F80036
:10057C0022D1119709F45CD01ED1129711F420D11D
:10058C0025D119D1139719F41BD134D139D113D1E9
:10059C00149719F415D12ED142D105D122FC02C0E9
:1005AC0023FC01C003C0FFD023FA22F80895B299AE
:1005BC0002C0E89401C0689427F826FE02C027FE0A
:1005CC0001C01DC0A7EFB0E0F0D0F5D011970CF42E
:1005DC004FD0F1D0119709F42BD0EDD0129711F424
:1005EC00EFD0F4D0E8D0139719F4EAD003D108D1A6
:1005FC00E2D0149719F4E4D0FDD011D1D4D026FC5C
:10060C0002C027FC01C003C0CED027FA26F80895FB
:10061C0088249924AA24BB24E1E0F0E06F01E09344
:10062C00E700F093E800E093E900F093EA00089506
:10063C00E0E0E093EB00E093EC00E093ED00E0935E
:10064C00EE00E1E0F0E0E093EF00F093F000E093D7
:10065C00F100F093F200E093F300F093F4000895AE
:10066C00E1E0F0E00895E093F500F093F6000895D2
:10067C00F7DFE093F700F093F8000895E093FB00A8
:10068C00F093FC000895E0E0E0930301E093040193
:10069C000895E6DFE0930501F09306010895E0DF8D
:1006AC00E0930701F09308010895ED91FD913196C7
:1006BC00FE93EE930895E65DFF4F04900BBA0895F8
:1006CC00B0E0BCC0A4E6FCCFE5BBEFEFE2BBA09171
:1006DC00FB00B091FC000895E091E100E03008953A
:1006EC00E091E200E0300895E091E300E0300895FD
:1006FC00E091E400E0300895E091E500E0300895E9
:10070C00A8ECDECFE091F900F091FA000895E093A7
:10071C00FF00F09300010895A091F900B091FA0048
:10072C000895E093F900F093FA000895A091FB006E
:10073C00B091FC00089594DFF4DFE3E0F0E09ECF8D
:10074C00A091F500B091F60008958ADF4F0108954D
:10075C00AA24BB24CC24DD2483DFE093E700F093B0
:10076C00E8007EDFE093E900F093EA00089578DF7B
:10077C005F010895CC24DD24E0E0E093E700E093F2
:10078C00E8006EDFE093E900F093EA00089568DF7B
:10079C006F01E0E0E093E700E093E800E093E9000C
:1007AC00E093EA000895A8E28BCFED91FD9131978B
:1007BC00FE93EE930895A091F700B091F800089580
:1007CC004FDFE093EB00F093EC000895E0E0E09352
:1007DC00ED00E093EE00E093EF00E093F00040DFDB
:1007EC00E093F100F093F2003BDFE093F300F09321
:1007FC00F400089535DFE093ED00F093EE000895DA
:10080C00E0E0E093EF00E093F000E093F100E09380
:10081C00F20026DFE093F300F093F400089520DF5C
:10082C00E093EF00F093F000E0E0E093F100E09350
:10083C00F200E093F300E093F4000895109639F081
:10084C00A8958AEF90E00197F1F71197C9F70895F1
:00000001FF
