:040000001FC0FECF50
:10000400FDCFFCCFFBCFFACFF9CFF8CFF7CFF6CFA8
:10001400F5CFF4CFF3CFF2CFF1CFF0CFEFCFEECFD8
:10002400EDCFECCFEBCF3F065B4F666D7C077F6F68
:10003400000000000400060034000000F894EE27DD
:10004400ECBBF1E0FBBFEBBFE5BF8DE0A2E0BB275B
:10005400ED938A95E9F780E092E0A0E6ED930197AD
:10006400E9F7E8E3F0E085919591009761F0A591B7
:10007400B59105901590BF01F00105900D9201977F
:10008400E1F7FB01F0CFEFE5EDBFE2E0EEBFC0EE3C
:10009400D0E000C0EFEFEABBE0E0EBBBEFEFE7BB83
:1000A400E0E0E8BBEFEFE4BBE0E0E5BBE1BBEFEF92
:1000B400E2BBE0E0E3BFE2BFECBFEFBDEEBDEDBDF0
:1000C400ECBDE7BDE6BDEBBDEABDE9BDE8BDE2BD03
:1000D400E5BDE4BDE3BDE9BFE5BFE4BFEAB9E0E8DF
:1000E400E8B9E0E0E0BFE6B9EDB9E6BF809B52D0E5
:1000F40082994EC044245524E8E5F2E0E415F50560
:100104000CF446C07394EAE0E71511F46394772481
:10011400EAE0E61519F4939466247724E6E0E915F9
:1001240019F466247724992481991BC02697E72D16
:10013400F0E0EC83FD83E62DF0E0EA83FB83E92D18
:10014400F0E0E883F983EC81FD813CD005BAEA81D3
:10015400FB8138D00BBAE881F98134D008BA2696ED
:1001640017C0809902C016D013C0A4E6B0E02ED008
:10017400E72DF0E027D005BAE62DF0E023D00BBA46
:10018400E92DF0E01FD008BAF20131962F01B4CF67
:10019400ADCFFFCF77246624992444245524E72D3A
:1001A400F0E0E65DFF4F049005BAE62DF0E0E65D71
:1001B400FF4F04900BBAE92DF0E0E65DFF4F049089
:1001C40008BA0895E65DFF4F04900895109639F03B
:1001D400A8958AEF90E00197F1F71197C9F7089570
:00000001FF
