:0C00000019C0FECFFDCFFCCFFBCFFACF24
:10000C00F9CFF8CFF7CFF6CFF5CFF4CFF3CFF2CFC0
:10001C00F1CFF0CFEFCFEECFEDCFECCFEBCF0000A9
:10002C00010002002A000000F894EE27ECBBF1E07E
:10003C00FBBFEBBFE5BF8DE0A2E0BB27ED938A953C
:10004C00E9F780E092E0A0E6ED930197E9F7ECE2A6
:10005C00F0E085919591009761F0A591B59105908F
:10006C001590BF01F00105900D920197E1F7FB018E
:10007C00F0CFEFE5EDBFE2E0EEBFC0EED0E04CC05C
:10008C001A931A2FE12FE066E7B983E08A95F1F70E
:10009C00369A349BFECF349AE5B119910895AA9300
:1000AC00B6D02F815885A885B0E0EFE1F0E0DCD028
:1000BC001E2F00E0211740F4A12FBB27E22FF0E008
:1000CC00E6D0EA1BFB0B01C0E0E01E2F30E031173D
:1000DC00F8F4AE81A13081F4203049F0303039F0A1
:1000EC00313029F4E22FEF5FA02FA3D003C0E02F13
:1000FC00EE0FE1600E2F0AC0AE81A23031F4303029
:10010C0011F479D001C0000F01C075D03F5FDFCF73
:10011C00E02F84D029960895E0E0EABBEBBBEFEF2B
:10012C00E7BBE0E0E8BBE4BBEFEFE5BBE1BBE0E045
:10013C00E2BBE3BFE2BFECBFEFBDEEBDEDBDECBD7E
:10014C00E7BDE6BDEBBDEABDE9BDE8BDE2BDE5BD81
:10015C00E4BDE3BDE9BFE5BFE4BFEAB9E0E8E8B957
:10016C00E0E6E7B9E1E8E6B9E0E1E0BFE0E0EDB9EF
:10017C00E6BF2597E3B3E7705E2EE0E0E883E2E0AC
:10018C00E51511F4E1E0E883E4E0E51511F4E2E0B3
:10019C00E88320FE02C034D0ECCFA0E071DFEC830A
:1001AC00A1E06EDFEB83AC814A1629F4E8E07E1601
:1001BC0008F4739401C07724EC81EA937A92AA81B3
:1001CC006EDFEA83E8BB4C80A2E3B0E067D0AB8182
:1001DC009A1629F4E8E06E1608F4639401C06624BC
:1001EC00EB81EA936A92AA815ADFE983E2BB9B8096
:1001FC0007D0BFCFFFCFE02FEE0FE1600E2F089599
:10020C00E1E02E26A2E3B0E049D0259608955A935A
:10021C004A933A932A931A930A9308955D814C81D9
:10022C003B812A81198108810895F195E195F0406F
:10023C000895EE230E2EEA2F19F0EE0F0A94E9F72B
:10024C0008950024112490E1AA0FBB1F001C111C5F
:10025C000E1A1F0A18F40E0E1F1E01C0A1609A95EB
:10026C0099F7FD01D001089504D0EBDF0EF4DDDF2A
:10027C000895E894F7FF02C0D8DF6894B7FF06C072
:10028C00B195A195B04000F8039400FA08951B2E87
:10029C00BF2FF12D1A2EAE2FE12D0895109639F0A7
:1002AC00A8958AEF90E00197F1F71197C9F7089597
:00000001FF
