:040000001EC0FECF51
:10000400FDCFFCCFFBCFFACFF9CFF8CFF7CFF6CFA8
:10001400F5CFF4CFF3CFF2CFF1CFF0CFEFCFEECFD8
:10002400EDCFECCFEBCF3F065B4F666D7C077F6F68
:1000340000000100020034000000F894EE27ECBB3D
:10004400F1E0FBBFEBBFE5BF8DE0A2E0BB27ED9382
:100054008A95E9F780E092E0A0E6ED930197E9F74D
:10006400E6E3F0E085919591009761F0A591B59153
:1000740005901590BF01F00105900D920197E1F7ED
:10008400FB01F0CFEFE5EDBFE2E0EEBFC0EED0E064
:100094000FC01A931A2FE12FE066E7B983E08A951F
:1000A400F1F7369A349BFECF349AE5B1199108954D
:1000B400E0E0EABBEBBBEFEFE7BBE0E0E8BBEFEF70
:1000C400E4BBE0E0E5BBE1BBEFEFE2BBE0E0E3BFB4
:1000D400E2BFECBFEFBDEEBDEDBDECBDE7BDE6BDDF
:1000E400EBBDEABDE9BDE8BDE2BDE5BDE4BDE3BDF0
:1000F400E9BFE5BFE4BFEAB9E0E8E8B9E0E6E7B99B
:10010400E1E8E6B9E0E1E0BFE0E0EDB9E6BFA0E098
:10011400C0DF4E2EE8948099689422F821FE02C034
:1001240022FE01C004C0E1E02E26A4E135D021FC6A
:1001340002C022FC01C002C0A4E12ED020FE17C0E0
:100144002DD0A9E0B0E059D0DF01E5E0F0E06DD0BA
:10015400E05E5E2E2DD02ED0A52DBB27E4E6F0E088
:1001640069D0BF0133D0DB01AE1BBF0B06C016D074
:100174005E2E1ED01FD0A52DB0E0EAE0F0E055D0F1
:100184002BD0E2E0E5BB14D021D026D0E4E0E5BBDF
:1001940022FA21F8BCCFFFCFB0E068C0A42DB0E0B4
:1001A400E4EFF1E02AD0DF01EFEFF0E03ED0089574
:1001B400A7E0F2CFA52DB0E0E4E6F0E036D0E65DAE
:1001C400FF4F049008BAE1E0E5BBF2CFA52DBB27B1
:1001D400EAE0F0E02FD00895E65DFF4F049008BAFE
:1001E4000895F195E195F0400895FA9FF02DEB9F65
:1001F400F00DEA9FE02DF10D08952AD0F6DF0EF4FC
:10020400F0DF08950024112490E1AA0FBB1F001C05
:10021400111C0E1A1F0A18F40E0E1F1E01C0A16035
:100224009A9599F7FD01D001089512D0EBDF0EF4F1
:10023400D8DF0895E894B7FF04C0B195A195B04004
:100244006894F7FDCEDFDEDFFD010EF4CADF08950A
:10025400E894F7FF02C0C5DF6894B7FF06C0B19504
:10026400A195B04000F8039400FA0895109639F06F
:10027400A8958AEF90E00197F1F71197C9F70895CF
:00000001FF
