:0C000000CAC0FECFFDCFFCCFFBCFFACF73
:10000C00F9CFF8CFF7CFF6CFF5CFF4CFF3CFF2CFC0
:10001C00F1CFF0CFEFCFEECFEDCFECCFEBCF0100A8
:10002C00000000000000FFFFFFFFFFFFFF000101C9
:10003C00010101020202020204040404040808087B
:10004C0008081010101010202020202040404040A4
:10005C004000412E363A413F3D003F3F3D1E2E367B
:10006C00395D3E363649676B6D007F583A3A3A46F1
:10007C00433536364F7C7E0E76784936363649799E
:10008C00363656697F7F7F7F7F7F7F7F7F007F7FC4
:10009C007F00367F7F0036367F00363636003636A8
:1000AC003649363636497F3636497F0036497F0029
:1000BC0076497F0076767F007676760076767609BE
:1000CC00767676097F7676097F0076097F00760949
:1000DC007F0076767F00767676007676760076767A
:1000EC0076007F7676007F7C76007F7C7B007F7C41
:1000FC007B077F7C7B077B7C7B077B7C7B077B7C0C
:10010C007F077B7C7F007B7C7F00767C7F00767614
:10011C007F007676760076767600767676007F7639
:10012C0076007F0076007F007D007F007D7B7F0066
:10013C007D7B77007D7B77007D7B77007F7B7700F5
:10014C007F7F77007F7F7F007F7F7F7F7F7F7F7FB9
:10015C007F7F7F7F7F007F7F7F00767F7F0076763B
:10016C007F007676760076767609080004002A0001
:10017C000700E00032002300E7003A0032000A01D9
:10018C005E00E6003C0190000000F894EE27ECBB0A
:10019C00F1E0FBBFEBBFE5BF8DE0A2E0BB27ED9329
:1001AC008A95E9F780E092E0A0E6ED930197E9F7F4
:1001BC00E6E7F1E085919591009761F0A591B591F5
:1001CC0005901590BF01F00105900D920197E1F794
:1001DC00FB01F0CFEFE5EDBFE2E0EEBFC0EED0E00B
:1001EC0000C0E0E0EABBEBBBE7BBE7E0E8BBEFEF4E
:1001FC00E4BBE0E0E5BBEFEFE1BBE0E0E2BBE3BF7B
:10020C00E2BFECBFEFBDEEBDEDBDECBDE7BDE6BDA5
:10021C00EBBDEABDE9BDE8BDE2BDE5BDE4BDE3BDB6
:10022C00E9BFE5BFE4BFEAB9E0E8E8B9E0E0E0BF68
:10023C00E6B9EDB9E6BFE6B3E7705E2EF0E03097B5
:10024C0041F4E62DF0E0E052FF4FE081E0956CD0F8
:10025C0043C0E130A0E0FA0769F46AD07E2EB39473
:10026C00E5E0EB1511F4A394BB24E7E0EA1509F4DF
:10027C00AA2432C0E230A0E0FA0769F459D054D075
:10028C00B394E5E0EB1511F4A394BB24E7E0EA1575
:10029C0009F4AA2421C0E330A0E0FA0779F4E92D8F
:1002AC00A5E0EA9FF001E65FFE4F4FD011F4BB24AE
:1002BC009394EAE0E91509F499240EC0E82DA5E021
:1002CC00EA9FF001E45CFE4F40D011F4BB24839410
:1002DC00EEE2E81509F48824E42DF0E0E130A0E02A
:1002EC00FA0711F4E2E013C0E230A0E0FA0711F4CF
:1002FC00E4E00DC0E430A0E0FA0711F4E8E007C038
:10030C00E830A0E0FA0711F4E0E101C0E1E04E2E84
:10031C006394E5E0E61509F4662445BA72BAAAE0DE
:10032C00B0E01CD088CFFFCF7E2EA4E6B0E016C084
:10033C00EA2DA5E0EA9FF001E951FF4FDF01EE271E
:10034C00A60DBE1FEC91E0950895DF01EE27A60DDA
:10035C00BE1F7C90B394ECE3EB150895109639F026
:10036C00A8958AEF90E00197F1F71197C9F70895D6
:00000001FF
