:0E0000003AC0FECFFDCFFCCFFBCFFACFF9CF39
:10000E00F8CFF7CFF6CFF5CFF4CFF3CFF2CFF1CFC6
:10001E00F0CFEFCFEECFEDCFECCFEBCF1027E80345
:10002E0064000A0001000010000110000100000031
:10003E00000019000A00130061004553434F4D00A4
:10004E0080C0010002003C0004000A003E000100D6
:10005E00E40042000100E60044000100E800460012
:10006E000200EA004E000000F894EE27ECBBF1E02F
:10007E00FBBFEBBFE5BF8DE0A2E0BB27ED938A95FA
:10008E00E9F780E092E0A0E6ED930197E9F7E0E56D
:10009E00F0E085919591009761F0A591B59105904D
:1000AE001590BF01F00105900D920197E1F7FB014C
:1000BE00F0CFEFE5EDBFE2E0EEBFC0EED0E00DC059
:1000CE00CBD1E12FE066E7B983E08A95F1F7369A56
:1000DE00349BFECF349AE5B1BDC1E0E0EABBEBBB89
:1000EE00EFEFE7BBE0E0E8BBE4BBE5BBE1BBEFEF66
:1000FE00E2BBE0E0E3BFE2BFECBFEFBDEEBDEDBDA6
:10010E00ECBDE7BDE6BDEBBDEABDE9BDE8BDE2BDB8
:10011E00E5BDE4BDE3BDE9BFE5BFE4BFEAB9E0E894
:10012E00E8B9E0E6E7B9E1E8E6B9E0E1E0BFE0E032
:10013E00EDB9E6BFA0E166D1809902C0E89401C096
:10014E00689421F820FE02C021FE01C009C0E09192
:10015E00E500E03011F4E1E001C0E0E0E093E500FD
:10016E0021FA20F8EBE07BD1A8E4B0E03CD1A0E08E
:10017E00A7DF8E2EF0E06F2F660F660B762F5BD209
:10018E00AAE9B9E989EB9FE383D26CD1A091E00093
:10019E00B091E1008091E2009091E3006CD1C6D263
:1001AE0009F008F402C067D15DD1A82DB0E0E4EFEC
:1001BE00F1E0D6D1DF01EFEFF0E0EAD12F01D2016D
:1001CE005FD1E6D16E2ED2015ED17E2EF201992440
:1001DE00EAE05CD1A62DA05DE8D0EBE057D1A72DCB
:1001EE00A05DE3D0ECE052D1AEE2DFD0EDE04ED137
:1001FE00A92DA05DDAD0EEE049D1AFEDD6D0EFE07B
:10020E0045D1A3E4D2D0A091E500A13069F4819943
:10021E0002C0D3943ED1829902C0A3943AD183995D
:10022E0002C0B39436D10FC0819905C035D13CD1EF
:10023E0008F042D12ED1829902C04BD12AD1839996
:10024E0002C0C39426D125D1B394EBE3EB1510F481
:10025E00A394BB24EBE3EA1518F4D394AA24BB248D
:10026E00E7E1ED1520F4C394DD24BB24AA24EFE1CD
:10027E00EC1510F42ED1CC24A091E400AD3038F062
:10028E000BD1E0E0E093E4000FD108F015D1E0E0EF
:10029E00FDD0AD2D24D1E1E0F9D0AD2D26D127D161
:1002AE00E2E0F4D0AAE381D0E3E0F0D0AA2D17D19A
:1002BE00E4E0ECD0AA2D19D11AD1E5E0E7D0AAE3FB
:1002CE0074D0E6E0E3D0AB2D0AD1E7E0DFD0AB2D62
:1002DE000CD10DD1E0E0C3D00DD147D108D1E1E072
:1002EE00BED008D15AD103D1E2E0B9D008D13DD168
:1002FE00FED0E3E0B4D003D150D1F9D0E4E0AFD0DA
:10030E00ADE253D0E5E0ABD0A091E400E8D0E6E05A
:10031E00A6D0A091E400E9D0EAD0E7E0A0D0ADE20B
:10032E0044D0E8E09CD0AC2DDAD0E9E098D0AC2DEA
:10033E00DCD0DDD001CFFFCF8FD0E8B3EF70AE2F82
:10034E00E12FE07FEA2BE8BBDFD0C29ADDD0C29866
:10035E00DBD080C0AA93A881EFDFE881E295E88325
:10036E00A881EADF81E18A95F1F721960895DCD024
:10037E001A2F0A81E12FF0E0E651FF4FE081E00FE6
:10038E00AE2FE8DF0093EE001093EF00D2D023964D
:10039E000895A2E0BDD0ACE0DDDFA1E0B9D0E0E091
:1003AE00E093EF00E093EE00089556D01A3031F04E
:1003BE00E091F000A091EE00AE1758F0E0E0EA9365
:1003CE00A091EF00AF5FA093EF00D1DF1A3009F4D8
:1003DE0041C0E091EE00EF5FE093EE00C09AA12FD6
:1003EE00B9DFC09837C09ED09D01F9012F5F3F4FF6
:1003FE00E4911E2FE03019F0A12FD7DFF6CF97D062
:10040E002496089529D0E7B3E06FE7BBBA9AB89A5D
:10041E00B99AC298C098C1981093F000E12FE05895
:10042E00E093EC00E12FE054E093ED00A4E1B0E0A6
:10043E009DD172D071D070D0A0E27EDF81E28A951C
:10044E00F1F7A8E287DFA4E085DFA5E883DFA6E069
:10045E0081DF9FDF199108951A931A2F0895EA9359
:10046E00A0E085CFE093E000F093E1006093E2001E
:10047E007093E3000895E0E0F0E066EC72E4089516
:10048E00EAE0F0E00895FCDF8BD00895EA93A1E056
:10049E006ECFACE2B1E06AC1A8EEB0E0ED91FD9195
:1004AE003196FE93EE930895A091E800B091E90085
:1004BE00A436E0E0BE070895A6EEB0E0ED91FD9102
:1004CE003196FE93EE93E0E0E093E800E093E900CE
:1004DE000895E091E400EF5FE093E4000895B0E04A
:1004EE00CFDF56D0E05DAE2F60CFBB27CCCFE05D27
:1004FE00AE2F5BCFA091E600B091E700C1CFA091E7
:10050E00E800B091E900BCCF82E08A95F1F708953A
:10051E0021DFA3E0B0E02AC1A0E30EDF81E28A95DD
:10052E00F1F708953A932A931A930A9308953B810B
:10053E002A81198108810895F195E195F040089579
:10054E00F09560957095E195FF4F6F4F7F4F089531
:10055E00FA9FF02DEB9FF00DEA9FE02DF10D08951F
:10056E002DD0F6DF0EF4E8DF08950024112490E17B
:10057E00AA0FBB1F001C111C0E1A1F0A18F40E0E18
:10058E001F1E01C0A1609A9599F7FD01D001089533
:10059E0015D0EBDF0EF4D0DF0895E7DFFD010895EF
:1005AE00E894B7FF04C0B195A195B0406894F7FDEB
:1005BE00C3DFDBDFFD010EF4BFDF0895E894F7FF24
:1005CE0002C0BADF6894B7FF06C0B195A195B040DE
:1005DE0000F8039400FA0895552342F4503811F4AC
:1005EE00E0FF04C03196691F791F6BF050E8572762
:1005FE0011F45F933CC05F3F31F0660F000C5795CE
:10060E006795752F08955F9300200AF03BC034C0A4
:10061E0050E8192E1522880F991F9527550F87958B
:10062E0050E8072E0522660F771F7527550F679521
:10063E000895689401C0E894309760407040B1F01E
:10064E00002426F0772312F400947ADF172E7EE131
:10065E00112032F07A95EE0FFF1F661F111CF9CF95
:10066E00EF2FF62F612D5F93C1DF5F910895EE2777
:10067E00FF27BF015F910895EFEFFFEF6FE77FEF69
:10068E005F910895EFEFFFEF6FE77FE75F910895BA
:10069E005F93BEDF703859F3903849F30124089404
:1006AE00791F23F424F300203AF3ECCF0F921F931B
:1006BE002F933F934F93112722279927689FA001CD
:1006CE008F9F302D410D591F6B9F300D411D591FAE
:1006DE008E9F27D0BF9F25D06A9F23D0BE9F1DD04F
:1006EE00AF9F1BD0AE9F110D291F391F491F591FD8
:1006FE00E32FF42F652F522F4F913F912F911F9182
:10070E000F9066232AF0550FEE1FFF1F661F02C0C3
:10071E0073954BF261DF5F910895100D211D391F06
:10072E0002C0200D311D491F591F089599239AF0BB
:10073E00772342F0971748F029F4AE17BF078607C4
:10074E0020F031F098948894089598940894089520
:10075E001894889408957723C2F7971798F3A9F7FA
:10076E00EA17FB07680788F399F3ECCF109639F078
:10077E00A8958AEF90E00197F1F71197C9F70895C0
:00000001FF
