:0A0000001EC0FECFFDCFFCCFFBCFEA
:10000A00FACFF9CFF8CFF7CFF6CFF5CFF4CFF3CFBA
:10001A00F2CFF1CFF0CFEFCFEECFEDCFECCFEBCFEA
:10002A003F065B4F666D7C077F6F00000100020090
:10003A0034000000F894EE27ECBBF1E0FBBFEBBF05
:10004A00E5BF8DE0A2E0BB27ED938A95E9F780E052
:10005A0092E0A0E6ED930197E9F7E6E3F0E08591F7
:10006A009591009761F0A591B59105901590BF0102
:10007A00F00105900D920197E1F7FB01F0CFEFE552
:10008A00EDBFE2E0EEBFC0EED0E00FC01A931A2F28
:10009A00E12FE066E7B983E08A95F1F7369A349B57
:1000AA00FECF349AE5B119910895E0E0EABBEBBBC3
:1000BA00EFEFE7BBE0E0E8BBEFEFE4BBE0E0E5BB76
:1000CA00E1BBEFEFE2BBE0E0E3BFE2BFECBFEFBDB5
:1000DA00EEBDEDBDECBDE7BDE6BDEBBDEABDE9BDDC
:1000EA00E8BDE2BDE5BDE4BDE3BDE9BFE5BFE4BFF0
:1000FA00EAB9E0E8E8B9E0E6E7B9E1E8E6B9E0E15B
:10010A00E0BFE0E0EDB9E6BFA0E0C0DFF0E0A4EFB9
:10011A00B1E073D0DF01EFEFF0E087D05E2EE89414
:10012A008099689422F821FE02C022FE01C004C010
:10013A00E1E02E26A4E146D021FC02C022FC01C047
:10014A0002C0A4E13FD020FE0BC0E52DA9E0EA9F42
:10015A00F001DF01E5E0F0E068D0E05E4E2E01C07C
:10016A00452CA42DB0E0E4E6F0E05FD09E2EA42D4D
:10017A00BB27E4E6F0E05ED0BF0126D0DB01AE1B70
:10018A00BF0BEAE0F0E051D06E2E1ED07E2EE92D94
:10019A0021D0A998AA9AA5E015D0E62D1BD0A99A34
:1001AA00AA98A5E00FD0E72DF0E0E65DFF4F049096
:1001BA0008BAA89AA998AA98A5E004D022FA21F820
:1001CA00A3CFFFCFB0E052C0A42DBB27EAE0F0E0F6
:1001DA0031D00895F0E0E65DFF4F049008BAA89880
:1001EA000895F195E195F0400895FA9FF02DEB9F5F
:1001FA00F00DEA9FE02DF10D08952AD0F6DF0EF4F6
:10020A00F0DF08950024112490E1AA0FBB1F001CFF
:10021A00111C0E1A1F0A18F40E0E1F1E01C0A1602F
:10022A009A9599F7FD01D001089512D0EBDF0EF4EB
:10023A00D8DF0895E894B7FF04C0B195A195B040FE
:10024A006894F7FDCEDFDEDFFD010EF4CADF089504
:10025A00E894F7FF02C0C5DF6894B7FF06C0B195FE
:10026A00A195B04000F8039400FA0895109639F069
:10027A00A8958AEF90E00197F1F71197C9F70895C9
:00000001FF
