:0C00000019C0FECFFDCFFCCFFBCFFACF24
:10000C00F9CFF8CFF7CFF6CFF5CFF4CFF3CFF2CFC0
:10001C00F1CFF0CFEFCFEECFEDCFECCFEBCF3F0664
:10002C005B4F666D7C077F6FF894EE27ECBBF1E0BD
:10003C00FBBFEBBFE5BF8DE0A2E0BB27ED938A953C
:10004C00E9F780E092E0A0E6ED930197E9F7EFE5A0
:10005C00EDBFE2E0EEBFC0EED0E00FC01A931A2F56
:10006C00E12FE066E7B983E08A95F1F7369A349B85
:10007C00FECF349AE5B119910895E0E0EABBEBBBF1
:10008C00EFEFE7BBE0E0E8BBEFEFE4BBE0E0E5BBA4
:10009C00E1BBE2BBE3BFE2BFECBFEFBDEEBDEDBD2C
:1000AC00ECBDE7BDE6BDEBBDEABDE9BDE8BDE2BD1B
:1000BC00E5BDE4BDE3BDE9BFE5BFE4BFEAB9E0E8F7
:1000CC00E8B9E0E6E7B9E1E8E6B9E0E1E0BFE0E095
:1000DC00EDB9E6BFA0E0C2DFF0E0ACE2B1E04DD09C
:1000EC00DF01EFEFF0E061D05E2EA52DB0E0E4E68D
:1000FC00F0E05BD04E2EA52DBB27E4E6F0E05AD005
:10010C00BF011FD0DB01AE1BBF0BEAE0F0E04DD00E
:10011C007E2E17D06E2EE42D1AD0A998AA9A1ED036
:10012C00E72D15D0A99AAA9819D0E62DF0E0E65D36
:10013C00FF4F049008BAA89AA998AA980FD0CACFD2
:10014C00FFCFA52DBB27EAE0F0E034D00895F0E016
:10015C00E65DFF4F049008BAA8980895A4E1B0E0BA
:10016C0045C0F195E195F0400895FA9FF02DEB9F75
:10017C00F00DEA9FE02DF10D08952AD0F6DF0EF474
:10018C00F0DF08950024112490E1AA0FBB1F001C7E
:10019C00111C0E1A1F0A18F40E0E1F1E01C0A160AE
:1001AC009A9599F7FD01D001089512D0EBDF0EF46A
:1001BC00D8DF0895E894B7FF04C0B195A195B0407D
:1001CC006894F7FDCEDFDEDFFD010EF4CADF089583
:1001DC00E894F7FF02C0C5DF6894B7FF06C0B1957D
:1001EC00A195B04000F8039400FA0895109639F0E8
:1001FC00A8958AEF90E00197F1F71197C9F7089548
:00000001FF
