:0400000019C0FECF56
:10000400FDCFFCCFFBCFFACFF9CFF8CFF7CFF6CFA8
:10001400F5CFF4CFF3CFF2CFF1CFF0CFEFCFEECFD8
:10002400EDCFECCFEBCF0000010002002A0000006E
:10003400F894EE27ECBBF1E0FBBFEBBFE5BF8DE02E
:10004400A2E0BB27ED938A95E9F780E092E0A0E671
:10005400ED930197E9F7ECE2F0E085919591009733
:1000640061F0A591B59105901590BF01F00105903F
:100074000D920197E1F7FB01F0CFEFE5EDBFE2E070
:10008400EEBFC0EED0E000C0EFEFEABB8BD0E0E003
:10009400E7BBEFEFE8BBE0E0E4BBE5BBE1BBE2BB01
:1000A400E3BFE2BFECBFEFBDEEBDEDBDECBDE7BD10
:1000B400E6BDEBBDEABDE9BDE8BDE2BDE5BDE4BD1D
:1000C400E3BDE9BFE5BFE4BFEAB9E0E8E8B9E0E0D1
:1000D400E0BFE6B9EDB9E6BF20FC02C0E89401C078
:1000E400689424F820FE02C024FE01C006C05DD03E
:1000F4005FD058D0ABEDB1E061D020FC02C024FC4D
:1001040001C001C055D024FA20F821FC02C0E894B3
:1001140001C0689425F821FE02C025FE01C006C076
:1001240044D0A2E348D0A2ECB1E048D021FC02C004
:1001340025FC01C001C03CD025FA21F822FC02C0F4
:10014400E89401C0689426F822FE02C026FE01C08D
:1001540006C02BD0ABE42FD0A9EAB1E02FD022FC0B
:1001640002C026FC01C001C023D026FA22F823FCD9
:1001740002C0E89401C0689427F823FE02C027FE59
:1001840001C006C012D0A4E616D0A0E9B1E016D092
:1001940023FC02C027FC01C001C00AD027FA23F8BF
:1001A4009BCFFFCFE0E0EBBB0895EFEFEBBB0895EF
:1001B400A9E1B0E003C0B0E001D0F4CF109639F06B
:1001C400A8958AEF90E00197F1F71197C9F7089580
:00000001FF
