:0C00000021C0FECFFDCFFCCFFBCFFACF1C
:10000C00F9CFF8CFF7CFF6CFF5CFF4CFF3CFF2CFC0
:10001C00F1CFF0CFEFCFEECFEDCFECCFEBCF0000A9
:10002C0000000000000000000000020002002A0096
:10003C000A0004002C000000F894EE27ECBBF1E061
:10004C00FBBFEBBFE5BF8DE0A2E0BB27ED938A952C
:10005C00E9F780E092E0A0E6ED930197E9F7E6E39B
:10006C00F0E085919591009761F0A591B59105907F
:10007C001590BF01F00105900D920197E1F7FB017E
:10008C00F0CFEFE5EDBFE2E0EEBFC0EED0E041C057
:10009C0083D18D012C813D81AA24BB240A151B051B
:1000AC009CF146D1ED91FC911197309721F140D103
:1000BC0046D1E130A0E0FA0719F4E5E043D11FC0C6
:1000CC0037D13DD1E230A0E0FA0719F4EAE03AD199
:1000DC0016C02ED134D1E330A0E0FA0719F4E8E0D1
:1000EC0031D10DC025D12BD1E430A0E0FA0719F4A1
:1000FC00E2E028D104C0E0E0EBBBA4E6B0E056D1CE
:10010C00F50131965F01CACFE0E0EBBB4AD12696F0
:10011C000895EFEFEABBE0E0EBBBE7BBE8BBE4BB69
:10012C00E5BBE1BBEFEFE2BBE0E0E3BFE2BFECBF5E
:10013C00EFBDEEBDEDBDECBDE7BDE6BDEBBDEABD73
:10014C00E9BDE8BDE2BDE5BDE4BDE3BDE9BFE5BF8A
:10015C00E4BFEAB9E0E8E8B9E0E0E0BFE6B9EDB940
:10016C00E6BF849902C0E89401C0689433F824FE79
:10017C0002C033FE01C002C0E9D0EBD024FC02C0A7
:10018C0033FC01C001C0E9D033FA24F8859902C0D0
:10019C00E89401C0689434F825FE02C034FE01C016
:1001AC0002C0DED0D6D025FC02C034FC01C001C098
:1001BC00D4D034FA25F8042C052809F088C0D0D006
:1001CC006E167F060CF080C0809902C0E89401C0C6
:1001DC00689427F820FE02C027FE01C003C0C3D0DC
:1001EC00BFD0CCD020FC02C027FC01C001C0B5D0D0
:1001FC0027FA20F8819902C0E89401C0689430F87D
:10020C0021FE02C030FE01C003C0ADD09FD0B6D0DD
:10021C0021FC02C030FC01C001C09FD030FA21F893
:10022C00829902C0E89401C0689431F822FE02C0A1
:10023C0031FE01C004C097D0E3E0F0E09FD022FC77
:10024C0002C031FC01C001C088D031FA22F8839978
:10025C0002C0E89401C0689432F823FE02C032FE5A
:10026C0001C004C080D0E4E0F0E088D023FC02C0E0
:10027C0032FC01C001C071D032FA23F888D0199732
:10028C0011F46ED03F01849902C0E89401C06894C7
:10029C0033F824FE02C033FE01C00DC078D01A978B
:1002AC0034F0E9E0F0E0E093E000F093E10058D0A6
:1002BC003F014CD04ED024FC02C033FC01C001C025
:1002CC004CD033FA24F87BCF662477242FC048D047
:1002DC00E415F505F1F4EAE0F0E08E169F067CF4E7
:1002EC00F401A2EEB0E0EE0FFF1FAE0FBF1FE0E077
:1002FC00F0E0ED93FC93F40131964F01ECCF8824A0
:10030C009924E0E0E093E000E093E10044245524DC
:10031C000DC01CD0E415F50549F4E2EEF0E0FA93BB
:10032C00EA9335D0B5DEE3E0F0E02F011ACFFFCF32
:10033C00F501D901EE0FFF1FAE0FBF1F0895ED9110
:10034C00FD910895EBBBA0EDB7E00895E2E0F0E07D
:10035C0008952F01AEE1B0E029C0AEE1B0E026C0B7
:10036C00E1E0F0E00895E091E000F091E100A2EE10
:10037C00B0E0EE0FFF1FAE0FBF1F0895ED93FC937F
:10038C00A0EEB0E0DCDF3196FE93EE93E6CFA091C9
:10039C00E000B091E10008953A932A931A930A93DE
:1003AC0008953B812A81198108810895109639F0AE
:1003BC00A8958AEF90E00197F1F71197C9F7089586
:00000001FF
